:100000000C945F000C9487000C9487000C9487007C
:100010000C9487000C9487000C9487000C943E028B
:100020000C9487000C9487000C9487000C94870034
:100030000C9487000C9487000C9487000C94870024
:100040000C94F4010C9487000C9421030C94FB0293
:100050000C9487000C9487000C9487000C94870004
:100060000C9487000C948700000000080002010037
:100070000003040700000000000000000200000070
:1000800000250028002B0000000000240027002A83
:100090000004040404040404040202020202020331
:1000A000030303030301020408102040800102043B
:1000B00008102001020408102000530390051124A9
:1000C0001FBECFEFD8E0DEBFCDBF11E0A0E0B1E0B2
:1000D000E4EFFFE002C005900D92A632B107D9F718
:1000E00021E0A6E2B1E001C01D92A23FB207E1F714
:1000F00010E0CEE5D0E004C02197FE010E949605F5
:10010000CD35D107C9F70E9485030C94ED070C94F7
:100110000000E2EBF0E02491EEE9F0E08491882326
:1001200099F090E0880F991FFC01E957FF4FA591C6
:10013000B491FC01E358FF4F859194918FB7F894E7
:10014000EC91E22BEC938FBF08950895CF92DF924C
:10015000EF92FF920F931F93CF93DF936C017A017D
:100160008B01C0E0D0E0CE15DF0589F0D8016D919C
:100170008D01D601ED91FC910190F081E02DC60139
:100180000995892B11F47E0102C02196ECCFC7019D
:10019000DF91CF911F910F91FF90EF90DF90CF9063
:1001A0000895FC01918D828D981761F0828DDF0199
:1001B000A80FB11D5D968C91928D9F5F9F73928F5A
:1001C00090E008958FEF9FEF0895FC01918D828D4F
:1001D000981731F0828DE80FF11D858D90E008951C
:1001E0008FEF9FEF0895FC01918D228D892F90E074
:1001F000805C9F4F821B91098F73992708958BE430
:1002000091E00E94F30021E0892B09F420E0822F85
:100210000895FC01848DDF01A80FB11DA35ABF4FC3
:100220002C91848D90E001968F739927848FA689F5
:10023000B7892C93A089B1898C9180648C93938D1C
:10024000848D981306C00288F389E02D80818F7D0C
:1002500080830895EF92FF920F931F93CF93DF93C4
:10026000EC0181E0888F9B8D8C8D981305C0E88907
:10027000F989808185FD24C0F62E0B8D10E00F5F7B
:100280001F4F0F731127E02E8C8DE8120CC00FB694
:1002900007FCFACFE889F989808185FFF5CFCE0187
:1002A0000E940901F1CF8B8DFE01E80FF11DE35A89
:1002B000FF4FF0820B8FEA89FB898081806207C043
:1002C000EE89FF896083E889F98980818064808371
:1002D00081E090E0DF91CF911F910F91FF90EF901F
:1002E0000895CF93DF93EC01888D8823C9F0EA89C4
:1002F000FB89808185FD05C0A889B9898C9186FD1F
:100300000FC00FB607FCF5CF808185FFF2CFA8891B
:10031000B9898C9185FFEDCFCE010E940901E7CF0D
:10032000DF91CF91089580E090E0892B29F00E9421
:10033000FF0081110C94000008950E949307EF9232
:10034000FF920F931F93CF93DF93EC017B018A0100
:1003500088819981009729F02A813B8124173507EC
:10036000F8F4B8016F5F7F4F0E94C906009759F0FB
:10037000998388831B830A832C813D81232B81F4FD
:10038000FC0110820DC088819981009711F00E94B4
:100390003106198218821D821C821B821A8207C0B4
:1003A0001D830C83B701888199810E94A107CE012A
:1003B000DF91CF911F910F91FF90EF900895FC0175
:1003C00011821082138212821582148261157105C6
:1003D00051F0FB0101900020E9F73197AF01461B76
:1003E000570B0C949F0108951F920F920FB60F9216
:1003F00011242F933F938F939F93AF93BF9380913B
:10040000470190914801A0914901B0914A01309172
:10041000460123E0230F2D3720F40196A11DB11DC5
:1004200005C026E8230F0296A11DB11D20934601A9
:100430008093470190934801A0934901B0934A01EA
:100440008091420190914301A0914401B0914501F6
:100450000196A11DB11D8093420190934301A09389
:100460004401B0934501BF91AF919F918F913F910E
:100470002F910F900FBE0F901F9018951F920F9203
:100480000FB60F9211242F933F938F939F93AF93A7
:10049000BF93EF93FF9380913E0190913F01A09114
:1004A0004001B0914101892B8A2B8B2B59F180910E
:1004B0003D01E0913B01F0913C01908189278083CF
:1004C00080913E0190913F01A0914001B091410186
:1004D000181619061A061B060CF080C080913E0102
:1004E00090913F01A0914001B09141010197A10974
:1004F000B10980933E0190933F01A0934001B093D6
:1005000041016CC080910001ECE7F0E0E4919FEFC5
:1005100090930001E130B9F098F0E230C9F4909185
:1005200070009D7F9093700091E09093B000909147
:10053000B100987F94609093B1001092B30008C00E
:1005400010926E0005C090916F009D7F90936F0098
:1005500090E0FC01E859FF4F2491FC01EB55FF4F5F
:100560003491FC01EF56FF4FE491EE23B9F12223C1
:1005700039F1233091F038F42130A9F0223001F51F
:1005800084B58F7D12C0273091F02830A1F024303F
:10059000B9F4809180008F7D03C0809180008F77B7
:1005A000809380000DC084B58F7784BD09C0809191
:1005B000B0008F7703C08091B0008F7D8093B00032
:1005C000F0E0EE0FFF1FE358FF4FA591B4918FB7F6
:1005D000F894EC9130953E233C938FBFFF91EF91BF
:1005E000BF91AF919F918F913F912F910F900FBE2F
:1005F0000F901F9018951F920F920FB60F92112413
:100600002F933F934F935F936F937F938F939F931A
:10061000AF93BF93EF93FF938BE491E00E940901A6
:10062000FF91EF91BF91AF919F918F917F916F91CA
:100630005F914F913F912F910F900FBE0F901F90A0
:1006400018951F920F920FB60F9211242F938F932C
:100650009F93EF93FF93E0915B01F0915C018081A8
:10066000E0916101F091620182FD12C09081809160
:1006700064018F5F8F7320916501821751F0E091C3
:100680006401F0E0E55BFE4F958F8093640101C04B
:100690008081FF91EF919F918F912F910F900FBECD
:1006A0000F901F901895EBE4F1E01382128288EE10
:1006B00093E0A0E0B0E084839583A683B7838BE0CA
:1006C00091E09183808385EC90E09587848784EC2A
:1006D00090E09787868780EC90E0918B808B81EC0F
:1006E00090E0938B828B82EC90E0958B848B86ECF0
:1006F00090E0978B868B118E128E138E148E67E18D
:1007000071E088EE91E00C94DF01CF93DF93CDB7D9
:10071000DEB727970FB6F894DEBF0FBECDBF789433
:1007200084B5826084BD84B5816084BD85B58260F6
:1007300085BD85B5816085BD80916E0081608093A7
:100740006E00109281008091810082608093810010
:100750008091810081608093810080918000816020
:10076000809380008091B10084608093B10080917B
:10077000B00081608093B00080917A0084608093A3
:100780007A0080917A00826080937A0080917A006A
:10079000816080937A0080917A00806880937A00EB
:1007A0001092C100E0915B01F0915C0182E08083D6
:1007B000E0915701F09158011082E0915901F091B8
:1007C0005A018FEC808310926301E0915F01F091F8
:1007D000600186E08083E0915D01F0915E0180819F
:1007E00080618083E0915D01F0915E01808188608D
:1007F0008083E0915D01F0915E018081806880835B
:10080000E0915D01F0915E0180818F7D80830E9487
:1008100089003CE7232E48EC442E512C612C712C8E
:100820005FE3852E5FE1952E6DE0362E7CE7A72EE7
:1008300070E0B72E0EE910E0E2EBEE2EE0E0FE2EC7
:100840008BE491E00E94F300181619060CF04AC1DF
:100850008BE491E00E94D1002091390130913A015E
:100860008A3059F0F901EC5CFE4F80832F5F3F4FD7
:1008700030933A012093390135C12530310509F013
:1008800042C064E371E0CE0101960E94DF018091D5
:10089000E8019091E9010097C9F069817A816115B9
:1008A000710591F04091EA015091EB012D813E815B
:1008B0004217530748F00E94A1078D819E819093B3
:1008C000ED018093EC0118C00E94310689819A8164
:1008D0009093E9018093E8018B819C819093EB01D7
:1008E0008093EA018D819E819093ED018093EC01CC
:1008F0001A8219821C821B821E821D8289819A8122
:100900000E94310608C040E050E064E271E088EEE9
:1009100091E00E949F014091EC015091ED016091A6
:10092000E8017091E9018BE491E00E94A6006FE17B
:1009300071E0CE0101960E94DF014D815E818091C0
:10094000EC019091ED01C980DA808417950778F069
:100950008091E8019091E901009749F0C114D10418
:1009600031F0B6010E94A80721E0892B09F020E0B0
:10097000C6012F830E9431062F81222309F4AEC0C5
:10098000809100018D3019F4F501849171C08F3F81
:1009900009F0A4C030920001F50184918F3F09F461
:1009A0009DC0813009F1823009F440C0811160C0DE
:1009B00014BC15BC84B5826084BD85B5816085BDDD
:1009C000F8018491E82FF0E0EE0FFF1FE358FF4F8E
:1009D0008591949190932B0180932A01F701849142
:1009E0008093290180E046C010928000109281001F
:1009F0008091810088608093810080918100816076
:100A000080938100F8018491E82FF0E0EE0FFF1F42
:100A1000E358FF4F8591949190932801809327018B
:100A2000F70184918093260181E024C01092B000E8
:100A30001092B1008091B00082608093B0008091EC
:100A4000B10081608093B100F8018491E82FF0E05B
:100A5000EE0FFF1FE358FF4F8591949190933C0157
:100A600080933B01F701849180933D0182E002C0B5
:100A700087FD34C08F830E9489008F818823E9F12C
:100A8000823099F18130C1F480918100887F81604A
:100A900080938100909289008092880040922C017E
:100AA00050922D0160922E0170922F0180916F0063
:100AB000826080936F0012C0823081F48FE3809354
:100AC000B30040923E0150923F016092400170920B
:100AD00041018091700082608093700010923A0111
:100AE000109239010E949301ABCE8091B100887FB2
:100AF00083608093B10089EFE2CF85B5887F836002
:100B000085BD27BC40923001509231016092320184
:100B10007092330180916E00826080936E00DECF10
:100B20008091E8019091E9010C943106EE0FFF1FCE
:100B30000590F491E02D0994CF93DF9382309105D5
:100B400010F482E090E0E091F001F091F10120E0FA
:100B500030E0C0E0D0E0309711F14081518148177A
:100B60005907C0F04817590761F482819381209793
:100B700019F09B838A832BC09093F1018093F0013D
:100B800026C02115310519F04217530718F49A01B0
:100B9000BE01DF01EF010280F381E02DDCCF2115E2
:100BA000310509F1281B390B2430310590F41296D8
:100BB0008D919C9113976115710521F0FB01938331
:100BC000828304C09093F1018093F001FD0132967D
:100BD00044C0FD01E20FF31F81939193225031092C
:100BE0002D933C933AC02091EE013091EF01232BDD
:100BF00041F420910301309104013093EF012093DF
:100C0000EE0120910101309102012115310541F4DD
:100C10002DB73EB74091050150910601241B350BBD
:100C2000E091EE01F091EF01E217F307A0F42E1B23
:100C30003F0B2817390778F0AC014E5F5F4F241740
:100C4000350748F04E0F5F1F5093EF014093EE01C0
:100C50008193919302C0E0E0F0E0CF01DF91CF916A
:100C600008950F931F93CF93DF93009709F48CC0DF
:100C7000FC013297138212820091F0011091F10170
:100C80000115110581F420813181820F931F20917C
:100C9000EE013091EF012817390779F5F093EF0154
:100CA000E093EE0171C0D80140E050E0AE17BF07FD
:100CB00050F412962D913C911397AD0121153105F9
:100CC00009F1D901F3CF9D01DA01338322836081D9
:100CD0007181860F971F8217930769F4EC012881B1
:100CE0003981260F371F2E5F3F4F318320838A8142
:100CF0009B8193838283452B29F4F093F101E09348
:100D0000F00142C01396FC93EE931297ED014991C6
:100D100059919E01240F351FE217F30771F480816A
:100D20009181840F951F029611969C938E938281D8
:100D3000938113969C938E931297E0E0F0E0D80194
:100D400012968D919C911397009719F0F8018C01E0
:100D5000F6CF8D919C9198012E5F3F4F820F931F8C
:100D60002091EE013091EF012817390769F430978F
:100D700029F41092F1011092F00102C01382128244
:100D80001093EF010093EE01DF91CF911F910F912E
:100D90000895A0E0B0E0EFECF6E00C94BA07EC01A7
:100DA000009721F4CB010E949C05B8C0FC01E60F1E
:100DB000F71F9C0122503109E217F30708F4ACC079
:100DC000D9010D911C91119706171707B0F0053046
:100DD000110508F49FC0C80104978617970708F407
:100DE00099C002501109061B170B019311936D93C3
:100DF0007C93CF010E9431068DC05B01A01AB10A1D
:100E00004C01800E911EA091F001B091F10140E0E3
:100E100050E0E12CF12C109709F44AC0A815B9054F
:100E2000D1F56D907C901197630182E0C80ED11CC2
:100E3000CA14DB0480F1A3014A195B096A0182E04C
:100E4000C80ED11C1296BC9012971396AC91B5E0C7
:100E5000CB16D10440F0B282A38351834083D901E1
:100E60006D937C930AC00E5F1F4FC301800F911FCB
:100E7000F90191838083EB2DFA2FE114F10431F015
:100E8000D7011396FC93EE93129744C0F093F101AF
:100E9000E093F0013FC08D919C911197481759073D
:100EA00008F4AC017D0112960D90BC91A02DB3CF3A
:100EB0008091EE019091EF0188159905E1F44617B4
:100EC0005707C8F48091010190910201009741F405
:100ED0008DB79EB74091050150910601841B950B7B
:100EE000E817F907C8F4F093EF01E093EE01F90178
:100EF000718360830FC0CB010E949C057C01009729
:100F000059F0A801BE010E949807CE010E94310647
:100F1000C70104C0CE0102C080E090E0CDB7DEB7CB
:100F2000EEE00C94D60781E090E0F8940C94ED0785
:100F3000FB01DC0102C001900D9241505040D8F7F6
:100F40000895FB01DC0101900D920020E1F7089566
:100F5000FB01DC014150504030F08D91019080192F
:100F600019F40020B9F7881B990B08952F923F922E
:100F70004F925F926F927F928F929F92AF92BF92A9
:100F8000CF92DF92EF92FF920F931F93CF93DF9355
:100F9000CDB7DEB7CA1BDB0B0FB6F894DEBF0FBEB2
:100FA000CDBF09942A88398848885F846E847D84FF
:100FB0008C849B84AA84B984C884DF80EE80FD8001
:100FC0000C811B81AA81B981CE0FD11D0FB6F89477
:100FD000DEBF0FBECDBFED01089510E0CEE5D0E03D
:100FE00004C0FE010E9496052196CF35D107C9F7AE
:040FF000F894FFCFA3
:100FF400FF0000F2018000000000002A01A600F3B7
:1010040000D100E5007101636F6D6D616E64006273
:06101400757A7A2100004C
:107E0000112484B714BE81FFF0D085E080938100F7
:107E100082E08093C00088E18093C10086E0809377
:107E2000C20080E18093C4008EE0C9D0259A86E02C
:107E300020E33CEF91E0309385002093840096BBD3
:107E4000B09BFECF1D9AA8958150A9F7CC24DD24C4
:107E500088248394B5E0AB2EA1E19A2EF3E0BF2EE7
:107E6000A2D0813461F49FD0082FAFD0023811F036
:107E7000013811F484E001C083E08DD089C08234E0
:107E800011F484E103C0853419F485E0A6D080C0E4
:107E9000853579F488D0E82EFF2485D0082F10E0AE
:107EA000102F00270E291F29000F111F8ED06801E7
:107EB0006FC0863521F484E090D080E0DECF843638
:107EC00009F040C070D06FD0082F6DD080E0C81688
:107ED00080E7D80618F4F601B7BEE895C0E0D1E017
:107EE00062D089930C17E1F7F0E0CF16F0E7DF06D8
:107EF00018F0F601B7BEE89568D007B600FCFDCFD4
:107F0000A601A0E0B1E02C9130E011968C91119780
:107F100090E0982F8827822B932B1296FA010C0160
:107F200087BEE89511244E5F5F4FF1E0A038BF0790
:107F300051F7F601A7BEE89507B600FCFDCF97BE46
:107F4000E89526C08437B1F42ED02DD0F82E2BD052
:107F50003CD0F601EF2C8F010F5F1F4F84911BD097
:107F6000EA94F801C1F70894C11CD11CFA94CF0C13
:107F7000D11C0EC0853739F428D08EE10CD085E9AC
:107F80000AD08FE07ACF813511F488E018D01DD067
:107F900080E101D065CF982F8091C00085FFFCCF94
:107FA0009093C60008958091C00087FFFCCF809118
:107FB000C00084FD01C0A8958091C6000895E0E648
:107FC000F0E098E1908380830895EDDF803219F02E
:107FD00088E0F5DFFFCF84E1DECF1F93182FE3DFCA
:107FE0001150E9F7F2DF1F91089580E0E8DFEE27F6
:047FF000FF270994CA
:027FFE00040479
:0400000300007E007B
:00000001FF